:100000000C94F4000C9409010C9409010C9409015E
:100010000C9409010C9409010C9409010C94090138
:100020000C9409010C9409010C9409010C94090128
:100030000C9409010C9409010C9409010C94090118
:100040000C9409010C9409010C9409010C94090108
:100050000C9409010C9409010C9409010C940901F8
:100060000C9409010C94090100000000000000003C
:10007000C00000000001E0000000000120000000BE
:100080000003E00000000003F00000000001E000B9
:1000900000000001C00000000001E00000000001BD
:1000A000E18000000001F18400000001F99C0000E3
:1000B0000000FFB800000000BFFF00000000FFFFCD
:1000C00000000000DFFC00000000DFFF80000000F7
:1000D000DC7F00000000DEFC00000000DCF000001F
:1000E0000001FF7000000001E7D800000001B3D854
:1000F00000000000E1F000000000C1F80000000076
:1001000047B8000000004FBC000000004B1DC000BD
:1001100000007A7FE0000000366E700000006C6C1A
:10012000E00000006C4CE0000000D8CCC0000000F3
:10013000D8C5C000000070C7C00000003CC78000E8
:10014000000038C78000000078C70000000070C6BB
:100150000000000070C60000000070C60000000033
:1001600030C20000000020C20000000060C2000099
:10017000000060C60000000060FE0000000060FE9D
:1001800000000000607E00000000607E00000000B3
:1001900060FE0000000063FE00000000677E0000BB
:1001A00000007FFE000000007FFE000000007FDFF7
:1001B000000000005FDF00000001FFFF0000000101
:1001C000800100000007FFFFC0000006FFFEE00006
:1001D0000004000060000007FFFFE0000007FFFFD1
:1001E000C00000000000000011241FBECFEFD8E0C7
:1001F000DEBFCDBF11E0A0E0B1E0E6E1F6E002C075
:1002000005900D92A833B107D9F70E947D020C9496
:1002100009030C94000098E087FF02C0289A01C0EF
:1002200028980000000029980000299A880F915012
:1002300099F70895CF93C82F807F0E940B018C2FD0
:100240008295807FCF910C940B01CF93C82F299872
:1002500088EF0E940B0100008C2FCF910C941A01A3
:100260008FEF84B92FE788E391E0215080409040E0
:10027000E1F700C0000083E30E9425018FEC97E0C6
:100280000197F1F700C0000082E30E9425018FEC86
:1002900097E00197F1F700C0000088E00E94250177
:1002A0008FEC97E00197F1F700C0000080E10E9419
:1002B00025018FEC97E00197F1F700C000008CE07A
:1002C0000E9425018FEC97E00197F1F700C0000034
:1002D00081E00E9425018FE19EE40197F1F700C0C3
:1002E000000086E00E9425018FE19EE40197F1F76E
:1002F00000C000000895CF93C82F29988AEF0E946C
:100300000B0100008C2FCF910C941A01913031F029
:10031000923031F0933031F090E805C090E903C09D
:1003200098E801C098E9890F0C942501292F2370C2
:10033000922F9695877038E0939F800D112490E05E
:10034000982F882722952071822B08951F93CF9391
:10035000DF931F92CDB7DEB7182F862F8F7180588D
:1003600069830E942501812F8F7782958F70698123
:1003700065FB662760F998E0699F800D112480581D
:100380000F90DF91CF911F910C94250184E30E947F
:10039000250186E30C94250186E30E94250180E374
:1003A0000C942501CF93DF9388E00E94250187EC10
:1003B00090E00197F1F700C0000081E00E94250164
:1003C0000E94C601C0E88C2F0E94250180E80E948F
:1003D0002501D0E180E00E947B0180E00E947B014A
:1003E000D150C1F7CF5FC03A71F70E94CC018CE0C9
:1003F0000E9425018FE19EE40197F1F700C0000003
:10040000DF91CF910895DF92EF92FF920F931F93A8
:10041000CF93DF93E62ED42E0E949601D92F182F6A
:100420001F730E94C601C0E8C10F40E9F42EF10E0F
:10043000D0588C2F0E9425018D2F0E94250110E09D
:100440001E1569F001E0D11001C000E00195802F78
:100450000E947B01802F0E947B011F5FF1CFCF5F45
:10046000CF11E7CFDF91CF911F910F91FF90EF90C8
:10047000DF900C94CC010F931F93CF93DF9300D0A8
:10048000CDB7DEB769837A830E9486016981062F22
:100490007A81172FF80181918F01882319F00E942A
:1004A0007B01F8CF0F900F90DF91CF911F910F91AB
:1004B0000895FF920F931F93CF93DF930E94C6017D
:1004C000C8E6D0E0F12C6F2D80E00E94A6018E01DD
:1004D0000A5F1F4FFE0184910E947B012196C01785
:1004E000D107C1F7F394F0E4FF12EDCFDF91CF9184
:1004F0001F910F91FF900C94CC018FEF8AB91BB81C
:1005000084B915B887B918B80E9430010E94D20189
:1005100060E071E082E091E00E943B022FEF81EE0B
:1005200094E0215080409040E1F700C000000E941C
:10053000D2016BE071E083E090E00E943B022FEF7C
:1005400081EE94E0215080409040E1F700C000002F
:1005500066E171E083E091E00E943B022FEF81EEC3
:1005600094E0215080409040E1F700C0000061E23B
:1005700071E083E092E00E943B022FEF81EE94E075
:10058000215080409040E1F700C000006CE271E033
:1005900083E093E00E943B022FEF81EE94E0215034
:1005A00080409040E1F700C000000E9459022FEF08
:1005B00081EE94E0215080409040E1F700C00000BF
:1005C000C0E0D0E01C2F0027036041E065E0C801D7
:1005D0000E9403022FEF81EE94E021508040904072
:1005E000E1F700C00000C330D10539F040E065E01C
:1005F000C8010E9403022196E5CF0E94D2012FEF8D
:1006000081EE94E0215080409040E1F700C000006E
:0606100090CFF894FFCF2B
:10061600434448494748C9E8BCC600C9FAC3FCB3C5
:10062600CFBFC9B9F300B0AEC7E9BCDBB8FCB8DFD1
:1006360000C8F4CEAAD7D4D3C9B9CA00C1BDD5DF84
:08064600BDD4BFC9C5D70000F7
:00000001FF
