:100000000C94F4000C9409010C9409010C9409015E
:100010000C9409010C9409010C9409010C94090138
:100020000C9409010C9409010C9409010C94090128
:100030000C9409010C9409010C9409010C94090118
:100040000C9409010C9409010C9409010C94090108
:100050000C9409010C9409010C9409010C940901F8
:100060000C9409010C94090100000000000000003C
:10007000C00000000001E0000000000120000000BE
:100080000003E00000000003F00000000001E000B9
:1000900000000001C00000000001E00000000001BD
:1000A000E18000000001F18400000001F99C0000E3
:1000B0000000FFB800000000BFFF00000000FFFFCD
:1000C00000000000DFFC00000000DFFF80000000F7
:1000D000DC7F00000000DEFC00000000DCF000001F
:1000E0000001FF7000000001E7D800000001B3D854
:1000F00000000000E1F000000000C1F80000000076
:1001000047B8000000004FBC000000004B1DC000BD
:1001100000007A7FE0000000366E700000006C6C1A
:10012000E00000006C4CE0000000D8CCC0000000F3
:10013000D8C5C000000070C7C00000003CC78000E8
:10014000000038C78000000078C70000000070C6BB
:100150000000000070C60000000070C60000000033
:1001600030C20000000020C20000000060C2000099
:10017000000060C60000000060FE0000000060FE9D
:1001800000000000607E00000000607E00000000B3
:1001900060FE0000000063FE00000000677E0000BB
:1001A00000007FFE000000007FFE000000007FDFF7
:1001B000000000005FDF00000001FFFF0000000101
:1001C000800100000007FFFFC0000006FFFEE00006
:1001D0000004000060000007FFFFE0000007FFFFD1
:1001E000C00000000000000011241FBECFEFD8E0C7
:1001F000DEBFCDBF11E0A0E0B1E0E0E5F7E002C076
:1002000005900D92A833B107D9F70E9402030C9410
:10021000A6030C94000087FF02C02F9A01C02F98FC
:1002200086FF02C02E9A01C02E9885FF02C02D9A2B
:1002300001C02D9884FF02C02C9A01C02C985998B7
:10024000589A8AE18A95F1F700C058988AE18A9510
:10025000F1F700C0599A0895CF93C82F0E940B015F
:100260008C2F8295807FCF910C940B015A980E941D
:100270002C018FEC97E00197F1F700C00000089582
:100280008FEF84B92FE788E391E0215080409040C0
:10029000E1F700C0000083E30E9436018FEC97E095
:1002A0000197F1F700C0000082E30E9436018FEC55
:1002B00097E00197F1F700C0000088E20E94360144
:1002C0008FEC97E00197F1F700C0000088E20E94F0
:1002D00036018FEC97E00197F1F700C0000088E04D
:1002E0000E9436018FEC97E00197F1F700C0000003
:1002F00080E10E9436018FEC97E00197F1F700C092
:1003000000008CE00E9436018FEC97E00197F1F736
:1003100000C0000081E00E9436018FE19EE4019759
:10032000F1F700C0000086E00E9436018FE19EE4F4
:100330000197F1F700C0000008955A9A0C942C011F
:1003400014B8599A58988AE18A95F1F700C0589ADA
:100350008AE18A95F1F700C083B158989FEF94B96C
:100360000895CF935A9A0E94A001C82F0E94A0011D
:1003700082958F70C07F8C2BCF910895913031F092
:10038000923031F0933031F090E805C090E903C02D
:1003900098E801C098E9890F0C943601292F237041
:1003A000922F9695877038E0939F800D112490E0EE
:1003B000982F882722952071822B08951F93CF9321
:1003C000DF931F92CDB7DEB7182F862F8F7180581D
:1003D00069830E943601812F8F7782958F706981A2
:1003E00065FB662760F998E0699F800D11248058AD
:1003F0000F90DF91CF911F910C94360184E20E94FF
:10040000360186E20C94360186E20E94360180E2D3
:100410000C943601CF93DF9388E00E94360187EC7D
:1004200090E00197F1F700C0000081E00E943601E2
:100430000E94FE01C0E88C2F0E94360180E80E94D5
:100440003601D0E180E00E949D0180E00E949D0184
:10045000D150C1F7CF5FC03A71F70E9404028CE01F
:100460000E9436018FE19EE40197F1F700C0000081
:10047000DF91CF910895DF92EF92FF920F931F9338
:10048000CF93DF93E62ED42E0E94CE01D92F182FC2
:100490001F730E94FE01C0E8C10F40E9F42EF10E67
:1004A000D0588C2F0E9436018D2F0E94360110E00B
:1004B0001E1569F001E0D11001C000E00195802F08
:1004C0000E949D01802F0E949D011F5FF1CFCF5F91
:1004D000CF11E7CFDF91CF911F910F91FF90EF9058
:1004E000DF900C9404020F931F93CF93DF9300D0FF
:1004F000CDB7DEB769837A830E94BE016981062F7A
:100500007A81172FF80181918F01882319F00E94B9
:100510009D01F8CF0F900F90DF91CF911F910F9118
:100520000895EF92FF920F931F93CF93DF931F9243
:10053000CDB7DEB7F82EE62E982F9F7099830E94D4
:10054000FE016E2D8F2D0E94DE010E94B1010E94DE
:10055000B101082F0E94B101182F6E2D8F2D0E941E
:10056000DE019981E92EF12C983078F447E050E0D3
:100570004E195F0981E090E001C0880F4A95EAF7C3
:10058000802B0E949D01812F0EC0802F0E949D0113
:100590004FE050E04E195F0981E090E001C0880F04
:1005A0004A95EAF7812B0E949D010F90DF91CF9130
:1005B0001F910F91FF90EF900C940402FF920F9304
:1005C0001F93CF93DF930E94FE01C8E6D0E0F12C89
:1005D0006F2D80E00E94DE018E010A5F1F4FFE0139
:1005E00084910E949D012196C017D107C1F7F39411
:1005F000F0E4FF12EDCFDF91CF911F910F91FF90AB
:100600000C9404028FEF8AB91BB884B915B887B966
:1006100018B80E9440010E940A0260E071E082E086
:1006200091E00E947302CCE16DE08C2F0E94910258
:1006300062E28C2F0E949102CF5FC437A9F7CDE010
:100640006C2F8CE10E9491026C2F83E70E94910233
:10065000CF5FC332A9F72FEF81EE94E021508040A5
:100660009040E1F700C000000E940A026BE071E0D8
:1006700083E090E00E9473022FEF81EE94E021501E
:1006800080409040E1F700C0000066E171E083E047
:1006900091E00E9473022FEF81EE94E021508040A0
:1006A0009040E1F700C0000061E271E083E092E079
:1006B0000E9473022FEF81EE94E021508040904021
:1006C000E1F700C000006CE271E083E093E00E947B
:1006D00073022FEF81EE94E0215080409040E1F7CB
:1006E00000C000000E94DE022FEF81EE94E0215056
:1006F00080409040E1F700C00000C0E0D0E01C2F37
:100700000027036041E065E0C8010E943B022FEF33
:1007100081EE94E0215080409040E1F700C000005D
:10072000C330D10539F040E065E0C8010E943B02CA
:100730002196E5CF0E940A022FEF81EE94E021502E
:1007400080409040E1F700C0000090CFF894FFCFC8
:10075000434448494748C9E8BCC600C9FAC3FCB38A
:10076000CFBFC9B9F300B0AEC7E9BCDBB8FCB8DF96
:1007700000C8F4CEAAD7D4D3C9B9CA00C1BDD5DF49
:08078000BDD4BFC9C5D70000BC
:00000001FF
